:020000040800F2
:1000000000280020B1050008550500085B05000820
:1000100061050008670500086D0500080000000084
:100020000000000000000000000000007305000850
:100030007F050008000000008B05000897050008F8
:10004000F9050008F9050008F9050008F905000898
:10005000F9050008F9050008F9050008F905000888
:10006000F9050008F9050008F9050008F905000878
:10007000F9050008F9050008F9050008F905000868
:10008000F9050008F9050008F9050008F905000858
:10009000F9050008F9050008F9050008F905000848
:1000A000F9050008F9050008F9050008F905000838
:1000B000F9050008F905000800000000F90500082E
:1000C000F90500080000000000000000F905000824
:1000D00000000000F9050008F90500080000000014
:1000E000F9050008F9050008F905000800000000FE
:1000F0000000000000000000000000000000000000
:0C01000000000000000000005FF808F1A3
:10010C0010B5054C237833B9044B13B10448AFF345
:10011C0000800123237010BD0C00002000000000A3
:10012C00481D000808B5034B1BB103490348AFF346
:10013C00008008BD0000000010000020481D0008D1
:10014C00034613F8012B002AFBD1181A013870470B
:10015C0080B586B002AF0346FB7197F9073023F0E8
:10016C000F035BB243F004035BB2DBB23B73FB796E
:10017C0023F00F03DBB27B73FB791B015BB243F003
:10018C0004035BB2DBB2BB73FB791B01DBB2FB7309
:10019C0007F10C024FF0FF33009304234E21034868
:1001AC0000F04EFE00BF1037BD4680BD2800002079
:1001BC0080B586B002AF0346FB7197F9073023F088
:1001CC000F035BB243F005035BB2DBB23B7397F9F1
:1001DC00073023F00F035BB243F001035BB2DBB2D9
:1001EC007B73FB791B015BB243F005035BB2DBB2A3
:1001FC00BB73FB791B015BB243F001035BB2DBB257
:10020C00FB7307F10C024FF0FF33009304234E21D4
:10021C00034800F015FE00BF1037BD4680BD00BF7F
:10022C002800002080B500AF3320FFF791FF32206B
:10023C00FFF78EFF2820FFF78BFF0C20FFF788FFBE
:10024C000620FFF785FF0120FFF782FF022000F058
:10025C0031FA00BF80BD80B500AF0120FFF778FFF9
:10026C00022000F027FA00BF80BD80B582B000AF3D
:10027C0003460A46FB711346BB71FB79002B06D172
:10028C00BB79803BDBB21846FFF762FF08E0FB79D5
:10029C00012B05D1BB79403BDBB21846FFF758FF69
:1002AC0000BF0837BD4680BD90B585B000AF786003
:1002BC000023FB7309E0FB7B7A6813441B78184618
:1002CC00FFF776FFFB7B0133FB73FC7B7868FFF752
:1002DC0037FF03469C42EED300BF00BF1437BD4628
:1002EC0090BD000080B500AF00F082F900F024F85A
:1002FC0000F092F800F062F8FFF794FF0021002064
:10030C00FFF7B3FF0A48FFF7CFFF08210120FFF7E3
:10031C00ACFF0848FFF7C8FF40F2DC5000F0CAF908
:10032C00FFF799FF40F2DC5000F0C4F9E6E700BF9C
:10033C00641D00086C1D000880B590B000AF07F17B
:10034C00180328220021184601F0F0FC3B1D002266
:10035C001A605A609A60DA601A610223BB61012349
:10036C00BB621023FB6202237B630023BB634FF44D
:10037C000023FB6307F11803184601F0B9F8034694
:10038C00002B01D000F06AF80F237B600223BB60C6
:10039C000023FB604FF480633B6100237B613B1DBA
:1003AC000021184601F024FB0346002B01D000F07D
:1003BC0055F800BF4037BD4680BD000080B500AF8A
:1003CC00124B134A1A60114B124A5A600F4B0022FF
:1003DC009A600E4B0022DA600C4B4FF480421A618B
:1003EC000A4B00225A61094B00229A61074B0022EA
:1003FC00DA61064B00221A62044800F0DDFB03466A
:10040C00002B01D000F02AF800BF80BD280000208E
:10041C0000540040A086010080B483B000AF0E4BA6
:10042C009B690D4A43F0040393610B4B9B6903F0EA
:10043C0004037B607B68084B9B69074A43F0080305
:10044C009361054B9B6903F008033B603B6800BF5D
:10045C000C37BD4680BC70470010024080B400AF22
:10046C0072B600BFFEE7000080B485B000AF154B3C
:10047C009B69144A43F001039361124B9B6903F08F
:10048C000103BB60BB680F4BDB690E4A43F0805322
:10049C00D3610C4BDB6903F080537B607B680A4BA8
:1004AC005B68FB60FB6823F0E063FB60FB6843F078
:1004BC000073FB60044AFB68536000BF1437BD46F1
:1004CC0080BC7047001002400000014080B588B02D
:1004DC0000AF786007F1100300221A605A609A602E
:1004EC00DA607B681B68154A934223D1144B9B69D5
:1004FC00134A43F008039361114B9B6903F0080303
:10050C00FB60FB68C0233B6112237B610023BB6152
:10051C0007F1100319460B4800F0D4F9084BDB69BE
:10052C00074A43F40013D361054BDB6903F4001352
:10053C00BB60BB6800BF2037BD4680BD0054004087
:10054C0000100240000C014080B400AFFEE780B404
:10055C0000AFFEE780B400AFFEE780B400AFFEE76B
:10056C0080B400AFFEE780B400AF00BFBD4680BCD6
:10057C00704780B400AF00BFBD4680BC704780B4EC
:10058C0000AF00BFBD4680BC704780B500AF00F027
:10059C0075F800BF80BD80B400AF00BFBD4680BC05
:1005AC0070470000FFF7F7FF0B480C490C4A00237B
:1005BC0002E0D458C4500433C4188C42F9D3094A0D
:1005CC00094C002301E013600432A242FBD301F07A
:1005DC0089FBFFF787FE7047000000200C0000200D
:1005EC00AC1D00080C00002080000020FEE700007D
:1005FC0080B500AF084B1B68074A43F0100313602B
:10060C00032000F02BF90F2000F008F8FFF72CFF67
:10061C000023184680BD00BF0020024080B582B088
:10062C0000AF7860124B1A68124B1B7819464FF4C6
:10063C007A73B3FBF1F3B2FBF3F3184600F035F920
:10064C000346002B01D001230EE07B680F2B0AD848
:10065C00002279684FF0FF3000F00BF9064A7B68F6
:10066C001360002300E0012318460837BD4680BD07
:10067C0000000020080000200400002080B400AF1F
:10068C00054B1B781A46054B1B681344034A136031
:10069C0000BFBD4680BC7047080000207C000020D5
:1006AC0080B400AF024B1B681846BD4680BC704737
:1006BC007C00002080B584B000AF7860FFF7F0FFBD
:1006CC00B8607B68FB60FB68B3F1FF3F05D00A4B59
:1006DC001B781A46FB681344FB6000BFFFF7E0FF72
:1006EC000246BB68D31AFA689A42F7D800BF00BF1B
:1006FC001037BD4680BD00BF0800002080B485B017
:10070C0000AF78607B6803F00703FB600C4BDB6881
:10071C00BB60BA684FF6FF031340BB60FB681A025C
:10072C00BB68134343F0BF6343F40033BB60044A1C
:10073C00BB68D36000BF1437BD4680BC704700BF98
:10074C0000ED00E080B400AF044BDB681B0A03F043
:10075C0007031846BD4680BC704700BF00ED00E0A3
:10076C0080B483B000AF03463960FB7197F9073052
:10077C00002B0ADB3B68DAB20C4997F907301201FF
:10078C00D2B20B4483F800230AE03B68DAB2084982
:10079C00FB7903F00F03043B1201D2B20B441A761F
:1007AC0000BF0C37BD4680BC704700BF00E100E0C5
:1007BC0000ED00E080B489B000AFF860B9607A60F9
:1007CC00FB6803F00703FB61FB69C3F10703042B10
:1007DC0028BF0423BB61FB690433062B02D9FB69D8
:1007EC00033B00E000237B614FF0FF32BB6902FA50
:1007FC0003F3DA43BB681A407B699A404FF0FF3130
:10080C007B6901FA03F3D9437B680B401343184609
:10081C002437BD4680BC704780B582B000AF78608D
:10082C007B68013BB3F1807F01D301230FE00A4ABF
:10083C007B68013B53600F214FF0FF30FFF790FFB7
:10084C00054B00229A60044B07221A6000231846BD
:10085C000837BD4680BD00BF10E000E080B582B017
:10086C0000AF78607868FFF749FF00BF0837BD46D6
:10087C0080BD80B586B000AF0346B9607A60FB736B
:10088C0000237B61FFF75EFF78617A68B96878694D
:10089C00FFF790FF024697F90F3011461846FFF705
:1008AC005FFF00BF1837BD4680BD80B582B000AF7A
:1008BC0078607868FFF7B0FF034618460837BD46E6
:1008CC0080BD000080B48BB000AF7860396000232D
:1008DC007B6200233B6248E101227B6A02FA03F34C
:1008EC00FB613B681B68FA691340BB61BA69FB6921
:1008FC009A4240F037813B685B68A34A93425ED0D2
:10090C00A14A934275D8A14A934258D09F4A934228
:10091C006FD89F4A934252D09D4A934269D89D4AC0
:10092C0093424CD09B4A934263D89B4A934246D005
:10093C00994A93425DD8122B2AD8122B59D801A26E
:10094C0052F823F0CB090008A5090008B7090008E4
:10095C00F9090008FF090008FF090008FF09000851
:10096C00FF090008FF090008FF090008FF0900083B
:10097C00FF090008FF090008FF090008FF0900082B
:10098C00FF090008FF090008AD090008C1090008AB
:10099C00824A934213D02CE03B68DB683B6229E02F
:1009AC003B68DB6804333B6224E03B68DB6808335C
:1009BC003B621FE03B68DB680C333B621AE03B6830
:1009CC009B68002B02D104233B6213E03B689B68BD
:1009DC00012B05D108233B627B68FA691A6109E097
:1009EC0008233B627B68FA695A6103E000233B628F
:1009FC0000E000BFBB69FF2B01D87B6801E07B687E
:100A0C0004337B61BB69FF2B02D87B6A9B0002E03D
:100A1C007B6A083B9B003B617B691A680F213B6931
:100A2C0001FA03F3DB431A40396A3B6901FA03F319
:100A3C001A437B691A603B685B6803F08053002B98
:100A4C0000F09080564B9B69554A43F0010393612B
:100A5C00534B9B6903F00103BB60BB68514A7B6A33
:100A6C009B08023352F82330FB607B6A03F00303CC
:100A7C009B000F2202FA03F3DB43FA681340FB607E
:100A8C007B68494A93420DD07B68484A934207D011
:100A9C007B68474A934201D1022304E0032302E01E
:100AAC00012300E000237A6A02F0030292009340D3
:100ABC00FA681343FB603B497B6A9B080233FA6874
:100ACC0041F823203B685B6803F48013002B06D0AD
:100ADC00384B9A683749BB6913438B6006E0354B3A
:100AEC009A68BB69DB43334913408B603B685B6896
:100AFC0003F40013002B06D02E4BDA682D49BB698A
:100B0C001343CB6006E02B4BDA68BB69DB43294906
:100B1C001340CB603B685B6803F40033002B06D0BA
:100B2C00244B5A682349BB6913434B6006E0214BA5
:100B3C005A68BB69DB431F4913404B603B685B68D9
:100B4C0003F48033002B06D01A4B1A681949BB6981
:100B5C0013430B6006E0174B1A68BB69DB4315495E
:100B6C0013400B607B6A01337B623B681A687B6ABB
:100B7C0022FA03F3002B7FF4AFAE00BF00BF2C377B
:100B8C00BD4680BC704700BF000032100000311021
:100B9C0000002210000021100000121000001110A3
:100BAC00001002400000014000080140000C014010
:100BBC00001001400004014080B584B000AF7860A3
:100BCC007B68002B01D101232BE17B6893F83D302E
:100BDC00DBB2002B06D17B68002283F83C207868BE
:100BEC00FFF774FC7B68242283F83D207B681B682C
:100BFC001A687B681B6822F001021A607B681B680C
:100C0C001A687B681B6842F400421A607B681B6898
:100C1C001A687B681B6822F400421A6001F030F8F5
:100C2C00F8607B685B68814A934207D8FB68804A0E
:100C3C00934294BF01230023DBB206E0FB687D4A9C
:100C4C00934294BF01230023DBB2002B01D001237C
:100C5C00E7E0FB68784AA2FB03239B0CBB607B6834
:100C6C001B685B6823F03F017B681B68BA680A430A
:100C7C005A607B681B681B6A23F03F017B685B68CA
:100C8C006A4A934202D8BB68013309E0BB684FF44F
:100C9C00967202FB03F3694AA2FB03239B090133FF
:100CAC007A6812680B4313627B681B68DB6923F458
:100CBC004F4222F0FF027B685B685C498B4219D87B
:100CCC00FB68591E7B685B685B00B1FBF3F3591C36
:100CDC0040F6FC730B40002B0AD0FB68591E7B6856
:100CEC005B685B00B1FBF3F30133C3F30B0351E01F
:100CFC0004234FE07B689B68002B11D1FB68581EC6
:100D0C007B6859680B465B000B44B0FBF3F3013373
:100D1C00C3F30B03002B0CBF01230023DBB212E047
:100D2C00FB68581E7B6859680B469B000B44990066
:100D3C000B44B0FBF3F30133C3F30B03002B0CBFD9
:100D4C0001230023DBB2002B01D0012322E07B68BE
:100D5C009B68002B0ED1FB68581E7B6859680B46AC
:100D6C005B000B44B0FBF3F30133C3F30B0343F40D
:100D7C0000430FE0FB68581E7B6859680B469B00CC
:100D8C000B4499000B44B0FBF3F30133C3F30B0397
:100D9C0043F44043796809681343CB617B681B6853
:100DAC001B6823F0C0017B68DA697B681B6A1A43F5
:100DBC007B681B680A431A607B681B689B6823F47A
:100DCC00034323F0FF037A6811697A68D2681143F0
:100DDC007A6812680B4393607B681B68DB6823F0AE
:100DEC00FF017B685A697B689B691A437B681B68A7
:100DFC000A43DA607B681B681A687B681B6842F0E0
:100E0C0001021A607B6800221A647B68202283F836
:100E1C003D207B6800221A637B68002283F83E2009
:100E2C00002318461037BD4680BD00BFA0860100C8
:100E3C007F841E00FF083D0083DE1B43D34D6210F0
:100E4C0080B588B002AFF8607A601A460B467B8199
:100E5C0013463B81FFF724FC7861FB6893F83D3027
:100E6C00DBB2202B40F0E0807B6900931923012238
:100E7C007049F86800F064F90346002B01D0022396
:100E8C00D3E0FB6893F83C30012B01D10223CCE07A
:100E9C00FB68012283F83C20FB681B681B6803F08D
:100EAC000103012B07D0FB681B681A68FB681B68E1
:100EBC0042F001021A60FB681B681A68FB681B6829
:100ECC0022F400621A60FB68212283F83D20FB6843
:100EDC00102283F83E20FB6800221A64FB687A68B3
:100EEC005A62FB683A895A85FB685B8D9AB2FB683B
:100EFC001A85FB68504ADA6279897B693A6AF86824
:100F0C0000F09CF80346002B01D001238DE0002358
:100F1C003B61FB681B685B693B61FB681B689B69F9
:100F2C003B613B6966E07A69396AF86800F022FA3D
:100F3C000346002B0DD0FB681B6C042B07D1FB6800
:100F4C001B681A68FB681B6842F400721A60012364
:100F5C006BE0FB685B6A1A78FB681B681A61FB68BC
:100F6C005B6A5A1CFB685A62FB685B8D9BB2013B47
:100F7C009AB2FB685A85FB681B8D013B9AB2FB68E1
:100F8C001A85FB681B685B6903F00403042B1BD1F7
:100F9C00FB681B8D002B17D0FB685B6A1A78FB680B
:100FAC001B681A61FB685B6A5A1CFB685A62FB6817
:100FBC005B8D9BB2013B9AB2FB685A85FB681B8D1B
:100FCC00013B9AB2FB681A857A69396AF86800F0B5
:100FDC0019FA0346002B0DD0FB681B6C042B07D1B0
:100FEC00FB681B681A68FB681B6842F400721A6085
:100FFC0001231AE0FB681B8D002B94D1FB681B6846
:10100C001A68FB681B6842F400721A60FB682022A5
:10101C0083F83D20FB68002283F83E20FB68002209
:10102C0083F83C20002300E0022318461837BD4605
:10103C0080BD00BF020010000000FFFF80B588B02B
:10104C0002AFF8607A603B600B467B81FB68DB6A21
:10105C007B617B69082B06D07B69012B03D07B69F4
:10106C0013F5803F08D1FB681B681A68FB681B6886
:10107C0042F480721A600BE0FB681B6B122B07D1D9
:10108C00FB681B681A68FB681B6842F480721A6064
:10109C003B6800937B6800224FF00111F86800F068
:1010AC004FF80346002B0DD0FB681B681B6803F43C
:1010BC008073B3F5807F03D1FB684FF400721A6420
:1010CC00032335E0FB681B69B3F5804F08D17B899E
:1010DC00DBB21A46FB681B6802F0FE021A611BE0C9
:1010EC007B89DB11DBB203F00603DBB263F00F0389
:1010FC00DAB2FB681B681A613B687A680E49F868BB
:10110C0000F098F80346002B01D0012310E07B89F6
:10111C00DAB2FB681B681A613B687A680749F868A1
:10112C0000F088F80346002B01D0012300E00023D7
:10113C0018461837BD4680BD0800010002000100AA
:10114C0080B584B000AFF860B9603B601346FB71AA
:10115C0048E03B68B3F1FF3F44D0FFF7A1FA0246E9
:10116C00BB69D31A3A689A4202D33B68002B39D137
:10117C00BB681B0CDBB2012B0DD1FB681B685B69D8
:10118C00DA43BB6813409BB2002B0CBF0123002336
:10119C00DBB21A460CE0FB681B689B69DA43BB6840
:1011AC0013409BB2002B0CBF01230023DBB21A4669
:1011BC00FB799A4216D1FB6800221A63FB68202245
:1011CC0083F83D20FB68002283F83E20FB681B6CF3
:1011DC0043F02002FB681A64FB68002283F83C2071
:1011EC00012323E0BB681B0CDBB2012B0DD1FB6888
:1011FC001B685B69DA43BB6813409BB2002B0CBFC6
:10120C0001230023DBB21A460CE0FB681B689B69C8
:10121C00DA43BB6813409BB2002B0CBF01230023A5
:10122C00DBB21A46FB799A4293D00023184610374A
:10123C00BD4680BD80B584B000AFF860B9607A60FF
:10124C003B6071E0FB681B685B6903F48063B3F57A
:10125C00806F23D1FB681B681A68FB681B6842F41B
:10126C0000721A60FB681B686FF480625A61FB683D
:10127C0000221A63FB68202283F83D20FB680022C1
:10128C0083F83E20FB681B6C43F00402FB681A6475
:10129C00FB68002283F83C20012367E07B68B3F1F4
:1012AC00FF3F41D0FFF7FCF902463B68D31A7A683E
:1012BC009A4202D37B68002B36D1BB681B0CDBB285
:1012CC00012B0CD1FB681B685B69DA43BB681340CC
:1012DC009BB2002B14BF01230023DBB20BE0FB6895
:1012EC001B689B69DA43BB6813409BB2002B14BF8D
:1012FC0001230023DBB2002B16D0FB6800221A63FB
:10130C00FB68202283F83D20FB68002283F83E20F6
:10131C00FB681B6C43F02002FB681A64FB6800221C
:10132C0083F83C20012321E0BB681B0CDBB2012BB2
:10133C000CD1FB681B685B69DA43BB6813409BB23A
:10134C00002B14BF01230023DBB20BE0FB681B68EE
:10135C009B69DA43BB6813409BB2002B14BF01237B
:10136C000023DBB2002B7FF46DAF0023184610373F
:10137C00BD4680BD80B584B000AFF860B9607A60BE
:10138C0034E0F86800F086F80346002B01D0012306
:10139C0034E0BB68B3F1FF3F28D0FFF781F9024678
:1013AC007B68D31ABA689A4202D3BB68002B1DD152
:1013BC00FB681B685B6903F08003802B16D0FB680D
:1013CC0000221A63FB68202283F83D20FB68002270
:1013DC0083F83E20FB681B6C43F02002FB681A6408
:1013EC00FB68002283F83C20012307E0FB681B68A4
:1013FC005B6903F08003802BC3D1002318461037A0
:10140C00BD4680BD80B584B000AFF860B9607A602D
:10141C0034E0F86800F03EF80346002B01D00123BD
:10142C0034E0BB68B3F1FF3F28D0FFF739F902462F
:10143C007B68D31ABA689A4202D3BB68002B1DD1C1
:10144C00FB681B685B6903F00403042B16D0FB6874
:10145C0000221A63FB68202283F83D20FB680022DF
:10146C0083F83E20FB681B6C43F02002FB681A6477
:10147C00FB68002283F83C20012307E0FB681B6813
:10148C005B6903F00403042BC3D100231846103707
:10149C00BD4680BD80B483B000AF78607B681B68AC
:1014AC005B6903F48063B3F5806F1BD17B681B68A9
:1014BC006FF480625A617B6800221A637B68202279
:1014CC0083F83D207B68002283F83E207B681B6CF0
:1014DC0043F004027B681A647B68002283F83C208A
:1014EC00012300E0002318460C37BD4680BC704732
:1014FC0080B586B000AF78607B68002B01D10123EA
:10150C006CE27B681B6803F00103002B00F0878002
:10151C00924B5B6803F00C03042B0CD08F4B5B6875
:10152C0003F00C03082B12D18C4B5B6803F4803353
:10153C00B3F5803F0BD1894B1B6803F40033002BB0
:10154C006CD07B685B68002B68D1012346E27B681A
:10155C005B68B3F5803F06D1804B1B687F4A43F430
:10156C00803313602EE07B685B68002B0CD17B4BC7
:10157C001B687A4A23F480331360784B1B68774AD4
:10158C0023F4802313601DE07B685B68B3F5A02F08
:10159C000CD1724B1B68714A43F4802313606F4B60
:1015AC001B686E4A43F4803313600BE06B4B1B6873
:1015BC006A4A23F480331360684B1B68674A23F430
:1015CC00802313607B685B68002B13D0FFF768F8EF
:1015DC00386108E0FFF764F802463B69D31A642BC4
:1015EC0001D90323FAE15D4B1B6803F40033002B94
:1015FC00F0D014E0FFF754F8386108E0FFF750F82A
:10160C0002463B69D31A642B01D90323E6E1534B01
:10161C001B6803F40033002BF0D100E000BF7B68A3
:10162C001B6803F00203002B63D04C4B5B6803F088
:10163C000C03002B0BD0494B5B6803F00C03082BFD
:10164C001CD1464B5B6803F48033002B16D1434B03
:10165C001B6803F00203002B05D07B681B69012B70
:10166C0001D00123BAE13D4B1B6823F0F8027B68E3
:10167C005B69DB00394913430B603AE07B681B69FB
:10168C00002B20D0364B01221A60FFF709F8386185
:10169C0008E0FFF705F802463B69D31A022B01D983
:1016AC0003239BE12D4B1B6803F00203002BF0D0AE
:1016BC002A4B1B6823F0F8027B685B69DB00274927
:1016CC0013430B6015E0264B00221A60FEF7E8FF6F
:1016DC00386108E0FEF7E4FF02463B69D31A022B9F
:1016EC0001D903237AE11D4B1B6803F00203002B85
:1016FC00F0D17B681B6803F00803002B3AD07B68A1
:10170C009B69002B19D0174B01221A60FEF7C8FFFA
:10171C00386108E0FEF7C4FF02463B69D31A022B7E
:10172C0001D903235AE10D4B5B6A03F00203002B32
:10173C00F0D0012000F0B8FA1CE00A4B00221A602D
:10174C00FEF7AEFF38610FE0FEF7AAFF02463B69D9
:10175C00D31A022B08D9032340E100BF001002402A
:10176C0000004242800442429E4B5B6A03F002033B
:10177C00002BE9D17B681B6803F00403002B00F0FD
:10178C00A6800023FB75974BDB6903F08053002B7D
:10179C000DD1944BDB69934A43F08053D361914B49
:1017AC00DB6903F08053BB60BB680123FB758E4B78
:1017BC001B6803F48073002B18D18B4B1B688A4A6F
:1017CC0043F480731360FEF76BFF386108E0FEF79B
:1017DC0067FF02463B69D31A642B01D90323FDE052
:1017EC00814B1B6803F48073002BF0D07B68DB68A3
:1017FC00012B06D17B4B1B6A7A4A43F0010313621F
:10180C002DE07B68DB68002B0CD1764B1B6A754A8C
:10181C0023F001031362734B1B6A724A23F0040317
:10182C0013621CE07B68DB68052B0CD16D4B1B6ACB
:10183C006C4A43F0040313626A4B1B6A694A43F017
:10184C00010313620BE0674B1B6A664A23F001032A
:10185C001362644B1B6A634A23F0040313627B68B4
:10186C00DB68002B15D0FEF71BFF38610AE0FEF792
:10187C0017FF02463B69D31A41F28832934201D9D1
:10188C000323ABE0574B1B6A03F00203002BEED093
:10189C0014E0FEF705FF38610AE0FEF701FF02468F
:1018AC003B69D31A41F28832934201D9032395E064
:1018BC004C4B1B6A03F00203002BEED1FB7D012B7A
:1018CC0005D1484BDB69474A23F08053D3617B68D1
:1018DC00DB69002B00F08180424B5B6803F00C034A
:1018EC00082B61D07B68DB69022B46D13F4B002271
:1018FC001A60FEF7D5FE386108E0FEF7D1FE02460D
:10190C003B69D31A022B01D9032367E0354B1B68C3
:10191C0003F00073002BF0D17B681B6AB3F5803F9A
:10192C0008D1304B5B6823F400327B689B682D49EF
:10193C0013434B602B4B5B6823F474127B68196A5E
:10194C007B685B6A0B43274913434B60274B01228F
:10195C001A60FEF7A5FE386108E0FEF7A1FE02460C
:10196C003B69D31A022B01D9032337E01D4B1B68AB
:10197C0003F00073002BF0D02FE01C4B00221A60F8
:10198C00FEF78EFE386108E0FEF78AFE02463B69E0
:10199C00D31A022B01D9032320E0124B1B6803F04E
:1019AC000073002BF0D118E07B68DB69012B01D1AF
:1019BC00012313E00B4B5B68FB60FB6803F4803284
:1019CC007B681B6A9A4206D1FB6803F470127B6831
:1019DC005B6A9A4201D0012300E0002318461837B5
:1019EC00BD4680BD001002400070004060004242C5
:1019FC0080B584B000AF786039607B68002B01D172
:101A0C000123D0E06A4B1B6803F007033A689A4243
:101A1C0010D9674B1B6823F0070265493B681343D9
:101A2C000B60634B1B6803F007033A689A4201D0C2
:101A3C000123B8E07B681B6803F00203002B20D065
:101A4C007B681B6803F00403002B05D0594B5B68C3
:101A5C00584A43F4E06353607B681B6803F0080347
:101A6C00002B05D0534B5B68524A43F460535360D0
:101A7C00504B5B6823F0F0027B689B684D49134325
:101A8C004B607B681B6803F00103002B40D07B6824
:101A9C005B68012B07D1474B1B6803F40033002B09
:101AAC0015D101237FE07B685B68022B07D1414B8A
:101ABC001B6803F00073002B09D1012373E03D4B2D
:101ACC001B6803F00203002B01D101236BE0394B9F
:101ADC005B6823F003027B685B68364913434B60F9
:101AEC00FEF7DEFDF8600AE0FEF7DAFD0246FB6861
:101AFC00D31A41F28832934201D9032353E02D4B80
:101B0C005B6803F00C027B685B689B009A42EBD12C
:101B1C00274B1B6803F007033A689A4210D2244BF8
:101B2C001B6823F0070222493B6813430B60204BD0
:101B3C001B6803F007033A689A4201D0012332E094
:101B4C007B681B6803F00403002B08D0194B5B68FF
:101B5C0023F4E0627B68DB68164913434B607B68B7
:101B6C001B6803F00803002B09D0124B5B6823F4AD
:101B7C0060527B681B69DB000E4913434B6000F01D
:101B8C0021F802460B4B5B681B0903F00F030A4953
:101B9C00CB5C22FA03F3094A1360094B1B68184605
:101BAC00FEF73CFD002318461037BD4680BD00BF34
:101BBC000020024000100240781D000800000020A8
:101BCC000400002080B487B000AF0023FB6000232A
:101BDC00BB6000237B6100237B6000233B611E4BB9
:101BEC005B68FB60FB6803F00C03042B02D0082B32
:101BFC0003D027E0194B3B6127E0FB689B0C03F0FB
:101C0C000F03174AD35C7B60FB6803F48033002B13
:101C1C0010D0114B5B685B0C03F00103114AD35CD1
:101C2C00BB607B680D4A02FB03F2BB68B2FBF3F3AB
:101C3C007B6104E07B680C4A02FB03F37B617B69EC
:101C4C003B6102E0054B3B6100BF3B6918461C370A
:101C5C00BD4680BC704700BF0010024000127A00E5
:101C6C00901D0008A01D000800093D0080B400AFC5
:101C7C00024B1B681846BD4680BC70470000002014
:101C8C0080B500AFFFF7F2FF0246054B5B681B0AFD
:101C9C0003F007030349CB5C22FA03F3184680BD1B
:101CAC0000100240881D000880B485B000AF786039
:101CBC000A4B1B680A4AA2FB03235B0A7A6802FBE5
:101CCC0003F3FB6000BFFB685A1EFA60002BF9D1CE
:101CDC0000BF00BF1437BD4680BC70470000002019
:101CEC00D34D621070B500260C4D0D4C641BA41026
:101CFC00A64209D100F022F800260A4D0A4C641BBA
:101D0C00A410A64205D170BD55F8043B9847013686
:101D1C00EEE755F8043B98470136F2E7A41D00089E
:101D2C00A41D0008A41D0008A81D000803460244B9
:101D3C00934200D1704703F8011BF9E7F8B500BFD7
:101D4C00F8BC08BC9E467047F8B500BFF8BC08BC90
:041D5C009E467047E8
:101D60002564000048656C6C6F000000416E6820BF
:101D70005475616E000000000000000000000000CB
:101D80000102030406070809000000000102030421
:101D900002030405060708090A0B0C0D0E0F1010AC
:041DA000010200003C
:041DA4003101000801
:041DA8000D01000821
:0C1DAC0000127A0010000000010000008E
:04000005080005B139
:00000001FF
